{
  "contractName": "SURegistry",
  "abi": [
    {
      "anonymous": false,
      "inputs": [
        {
          "components": [
            {
              "internalType": "bytes",
              "name": "name",
              "type": "bytes"
            },
            {
              "internalType": "bytes32",
              "name": "owner",
              "type": "bytes32"
            }
          ],
          "indexed": false,
          "internalType": "struct SURegistry.StorageUnit",
          "name": "hashes",
          "type": "tuple"
        }
      ],
      "name": "Registered",
      "type": "event"
    },
    {
      "constant": true,
      "inputs": [
        {
          "internalType": "uint256",
          "name": "",
          "type": "uint256"
        }
      ],
      "name": "registry",
      "outputs": [
        {
          "internalType": "bytes",
          "name": "name",
          "type": "bytes"
        },
        {
          "internalType": "bytes32",
          "name": "owner",
          "type": "bytes32"
        }
      ],
      "payable": false,
      "stateMutability": "view",
      "type": "function"
    },
    {
      "constant": false,
      "inputs": [
        {
          "internalType": "bytes",
          "name": "_name",
          "type": "bytes"
        },
        {
          "internalType": "bytes32",
          "name": "_owner",
          "type": "bytes32"
        }
      ],
      "name": "register",
      "outputs": [],
      "payable": false,
      "stateMutability": "nonpayable",
      "type": "function"
    },
    {
      "constant": true,
      "inputs": [
        {
          "internalType": "bytes",
          "name": "_name",
          "type": "bytes"
        },
        {
          "internalType": "bytes32",
          "name": "_owner",
          "type": "bytes32"
        }
      ],
      "name": "verify",
      "outputs": [
        {
          "internalType": "uint256",
          "name": "res",
          "type": "uint256"
        }
      ],
      "payable": false,
      "stateMutability": "view",
      "type": "function"
    }
  ],
  "bytecode": "0x608060405234801561001057600080fd5b50610926806100206000396000f3fe608060405234801561001057600080fd5b50600436106100415760003560e01c80635893253c146100465780636b40634114610077578063f42838e1146100a7575b600080fd5b610060600480360361005b9190810190610502565b6100c3565b60405161006e929190610726565b60405180910390f35b610091600480360361008c91908101906104ae565b61018c565b60405161009e9190610778565b60405180910390f35b6100c160048036036100bc91908101906104ae565b6102bb565b005b600081815481106100d057fe5b9060005260206000209060020201600091509050806000018054600181600116156101000203166002900480601f01602080910402602001604051908101604052809291908181526020018280546001816001161561010002031660029004801561017c5780601f106101515761010080835404028352916020019161017c565b820191906000526020600020905b81548152906001019060200180831161015f57829003601f168201915b5050505050908060010154905082565b6000806000805490509050600080905060008090505b828110156102ab57856040516020016101bb91906106f8565b60405160208183030381529060405280519060200120600082815481106101de57fe5b90600052602060002090600202016000016040516020016101ff919061070f565b60405160208183030381529060405280519060200120141561029e578460405160200161022c91906106dd565b604051602081830303815290604052805190602001206000828154811061024f57fe5b90600052602060002090600202016001015460405160200161027191906106dd565b60405160208183030381529060405280519060200120141561029957600293505050506102b5565b600191505b80806001019150506101a2565b508060ff16925050505b92915050565b6102c361036e565b604051806040016040528084815260200183815250905060008190806001815401808255809150509060018203906000526020600020906002020160009091929091909150600082015181600001908051906020019061032492919061038b565b50602082015181600101555050507f54f6edf4fe64978a8e9b897471dc2a6ccbe646651f6efb04fa474053403f649e816040516103619190610756565b60405180910390a1505050565b604051806040016040528060608152602001600080191681525090565b828054600181600116156101000203166002900490600052602060002090601f016020900481019282601f106103cc57805160ff19168380011785556103fa565b828001600101855582156103fa579182015b828111156103f95782518255916020019190600101906103de565b5b509050610407919061040b565b5090565b61042d91905b80821115610429576000816000905550600101610411565b5090565b90565b60008135905061043f816108b5565b92915050565b600082601f83011261045657600080fd5b8135610469610464826107c0565b610793565b9150808252602083016020830185838301111561048557600080fd5b610490838284610858565b50505092915050565b6000813590506104a8816108cc565b92915050565b600080604083850312156104c157600080fd5b600083013567ffffffffffffffff8111156104db57600080fd5b6104e785828601610445565b92505060206104f885828601610430565b9150509250929050565b60006020828403121561051457600080fd5b600061052284828501610499565b91505092915050565b61053481610844565b82525050565b61054381610844565b82525050565b61055a61055582610844565b61089a565b82525050565b600061056b8261080c565b6105758185610839565b9350610585818560208601610867565b80840191505092915050565b600061059c82610801565b6105a68185610817565b93506105b6818560208601610867565b6105bf816108a4565b840191505092915050565b60006105d582610801565b6105df8185610828565b93506105ef818560208601610867565b6105f8816108a4565b840191505092915050565b600081546001811660008114610620576001811461064557610689565b607f60028304166106318187610839565b955060ff1983168652808601935050610689565b600282046106538187610839565b955061065e856107ec565b60005b8281101561068057815481890152600182019150602081019050610661565b82880195505050505b505092915050565b600060408301600083015184820360008601526106ae8282610591565b91505060208301516106c3602086018261052b565b508091505092915050565b6106d78161084e565b82525050565b60006106e98284610549565b60208201915081905092915050565b60006107048284610560565b915081905092915050565b600061071b8284610603565b915081905092915050565b6000604082019050818103600083015261074081856105ca565b905061074f602083018461053a565b9392505050565b600060208201905081810360008301526107708184610691565b905092915050565b600060208201905061078d60008301846106ce565b92915050565b6000604051905081810181811067ffffffffffffffff821117156107b657600080fd5b8060405250919050565b600067ffffffffffffffff8211156107d757600080fd5b601f19601f8301169050602081019050919050565b60008190508160005260206000209050919050565b600081519050919050565b600081519050919050565b600082825260208201905092915050565b600082825260208201905092915050565b600081905092915050565b6000819050919050565b6000819050919050565b82818337600083830152505050565b60005b8381101561088557808201518184015260208101905061086a565b83811115610894576000848401525b50505050565b6000819050919050565b6000601f19601f8301169050919050565b6108be81610844565b81146108c957600080fd5b50565b6108d58161084e565b81146108e057600080fd5b5056fea365627a7a723158203addb58e9fcbcc2715b80a0de5a941cb6b0bed01f3cc0c5df54bd632440ab3616c6578706572696d656e74616cf564736f6c63430005100040",
  "source": "pragma solidity ^0.5.16;\r\npragma experimental ABIEncoderV2;\r\n\r\ncontract SURegistry {\r\n\r\n    struct StorageUnit\r\n    {\r\n        bytes name;\r\n        bytes32 owner;\r\n    }\r\n\r\n    StorageUnit[] public registry;\r\n\r\n    event Registered(StorageUnit hashes);\r\n    \r\n    function register(bytes memory _name, bytes32 _owner) public {\r\n        StorageUnit memory hashes = StorageUnit(_name, _owner);\r\n        registry.push(hashes);\r\n        emit Registered(hashes);\r\n    } \r\n    \r\n    function verify(bytes memory _name, bytes32 _owner) public view returns (uint res) {\r\n        // We know the length of the array\r\n        uint arrayLength = registry.length;\r\n        uint8 result = 0; // 0: nothing found; 1: found name, not name with that owner; 2: all found\r\n        \r\n        for (uint i=0; i<arrayLength; i++) {\r\n            if(keccak256(abi.encodePacked(registry[i].name)) == keccak256(abi.encodePacked(_name))){\r\n                if(keccak256(abi.encodePacked(registry[i].owner)) == keccak256(abi.encodePacked(_owner))){\r\n                    return 2;\r\n                }\r\n                result = 1;\r\n            }\r\n        }\r\n\r\n        return result;\r\n    }\r\n}",
  "sourcePath": "C:/Users/pspez/Documents/Progetti/PineSU/blockchain/contracts/SURegistry.sol",
  "compiler": {
    "name": "solc",
    "version": "0.5.16+commit.9c3226ce.Emscripten.clang"
  },
  "schemaVersion": "3.3.4",
  "updatedAt": "2021-03-30T13:54:59.445Z",
  "devdoc": {
    "methods": {}
  },
  "userdoc": {
    "methods": {}
  }
}