{
  "contractName": "SURegistry",
  "abi": [
    {
      "constant": true,
      "inputs": [],
      "name": "SUCount",
      "outputs": [
        {
          "internalType": "uint256",
          "name": "",
          "type": "uint256"
        }
      ],
      "payable": false,
      "stateMutability": "view",
      "type": "function"
    },
    {
      "constant": true,
      "inputs": [
        {
          "internalType": "uint256",
          "name": "",
          "type": "uint256"
        }
      ],
      "name": "registry",
      "outputs": [
        {
          "internalType": "string",
          "name": "",
          "type": "string"
        }
      ],
      "payable": false,
      "stateMutability": "view",
      "type": "function"
    },
    {
      "constant": false,
      "inputs": [
        {
          "internalType": "string",
          "name": "hashSU",
          "type": "string"
        }
      ],
      "name": "addSU",
      "outputs": [],
      "payable": false,
      "stateMutability": "nonpayable",
      "type": "function"
    }
  ],
  "bytecode": "0x608060405234801561001057600080fd5b50610395806100206000396000f3fe608060405234801561001057600080fd5b50600436106100415760003560e01c80635893253c14610046578063682e538f146100ed57806373034259146101a8575b600080fd5b6100726004803603602081101561005c57600080fd5b81019080803590602001909291905050506101c6565b6040518080602001828103825283818151815260200191508051906020019080838360005b838110156100b2578082015181840152602081019050610097565b50505050905090810190601f1680156100df5780820380516001836020036101000a031916815260200191505b509250505060405180910390f35b6101a66004803603602081101561010357600080fd5b810190808035906020019064010000000081111561012057600080fd5b82018360208201111561013257600080fd5b8035906020019184600183028401116401000000008311171561015457600080fd5b91908080601f016020809104026020016040519081016040528093929190818152602001838380828437600081840152601f19601f820116905080830192505050505050509192919290505050610276565b005b6101b06102b5565b6040518082815260200191505060405180910390f35b60016020528060005260406000206000915090508054600181600116156101000203166002900480601f01602080910402602001604051908101604052809291908181526020018280546001816001161561010002031660029004801561026e5780601f106102435761010080835404028352916020019161026e565b820191906000526020600020905b81548152906001019060200180831161025157829003601f168201915b505050505081565b6002600081548092919060010191905055508060016000600254815260200190815260200160002090805190602001906102b19291906102bb565b5050565b60025481565b828054600181600116156101000203166002900490600052602060002090601f016020900481019282601f106102fc57805160ff191683800117855561032a565b8280016001018555821561032a579182015b8281111561032957825182559160200191906001019061030e565b5b509050610337919061033b565b5090565b61035d91905b80821115610359576000816000905550600101610341565b5090565b9056fea265627a7a723158202cff81d6277c691bedb8da29aea03b38f41757990c16624496f539a1fbbdfee664736f6c63430005100032",
  "source": "pragma solidity ^0.5.16;\r\n\r\ncontract SURegistry {\r\n\r\n    string StorageUnit;\r\n\r\n    mapping(uint => string) public registry;\r\n\r\n    uint public SUCount;\r\n\r\n    function addSU(string memory hashSU) public {\r\n\r\n        SUCount++;\r\n\r\n        registry[SUCount] = hashSU;\r\n\r\n    }\r\n\r\n}",
  "sourcePath": "D:/Progetti/Tirocinio/pinesu/dapp/contracts/SURegistry.sol",
  "compiler": {
    "name": "solc",
    "version": "0.5.16+commit.9c3226ce.Emscripten.clang"
  },
  "schemaVersion": "3.3.4",
  "updatedAt": "2021-04-08T20:25:22.998Z",
  "networkType": "ethereum",
  "devdoc": {
    "methods": {}
  },
  "userdoc": {
    "methods": {}
  }
}